{"abi":[{"type":"constructor","inputs":[{"name":"_owner1","type":"address","internalType":"address"},{"name":"_owner2","type":"address","internalType":"address"},{"name":"_required","type":"uint256","internalType":"uint256"}],"stateMutability":"nonpayable"},{"type":"function","name":"confirmTransaction","inputs":[{"name":"_txIndex","type":"uint256","internalType":"uint256"}],"outputs":[],"stateMutability":"nonpayable"},{"type":"function","name":"deposit","inputs":[],"outputs":[],"stateMutability":"payable"},{"type":"function","name":"executeTransaction","inputs":[{"name":"_txIndex","type":"uint256","internalType":"uint256"}],"outputs":[],"stateMutability":"nonpayable"},{"type":"function","name":"isOwner","inputs":[{"name":"","type":"address","internalType":"address"}],"outputs":[{"name":"","type":"bool","internalType":"bool"}],"stateMutability":"view"},{"type":"function","name":"owners","inputs":[{"name":"","type":"uint256","internalType":"uint256"}],"outputs":[{"name":"","type":"address","internalType":"address"}],"stateMutability":"view"},{"type":"function","name":"required","inputs":[],"outputs":[{"name":"","type":"uint256","internalType":"uint256"}],"stateMutability":"view"},{"type":"function","name":"revokeConfirmation","inputs":[{"name":"_txIndex","type":"uint256","internalType":"uint256"}],"outputs":[],"stateMutability":"nonpayable"},{"type":"function","name":"submitTransaction","inputs":[{"name":"_to","type":"address","internalType":"address"},{"name":"_value","type":"uint256","internalType":"uint256"},{"name":"_data","type":"bytes","internalType":"bytes"}],"outputs":[],"stateMutability":"nonpayable"},{"type":"function","name":"transactions","inputs":[{"name":"","type":"uint256","internalType":"uint256"}],"outputs":[{"name":"to","type":"address","internalType":"address"},{"name":"value","type":"uint256","internalType":"uint256"},{"name":"data","type":"bytes","internalType":"bytes"},{"name":"executed","type":"bool","internalType":"bool"}],"stateMutability":"view"},{"type":"event","name":"Confirmation","inputs":[{"name":"sender","type":"address","indexed":true,"internalType":"address"},{"name":"txIndex","type":"uint256","indexed":true,"internalType":"uint256"}],"anonymous":false},{"type":"event","name":"Deposit","inputs":[{"name":"sender","type":"address","indexed":true,"internalType":"address"},{"name":"amount","type":"uint256","indexed":false,"internalType":"uint256"}],"anonymous":false},{"type":"event","name":"Execution","inputs":[{"name":"txIndex","type":"uint256","indexed":true,"internalType":"uint256"}],"anonymous":false},{"type":"event","name":"Revocation","inputs":[{"name":"sender","type":"address","indexed":true,"internalType":"address"},{"name":"txIndex","type":"uint256","indexed":true,"internalType":"uint256"}],"anonymous":false},{"type":"event","name":"Submission","inputs":[{"name":"txIndex","type":"uint256","indexed":true,"internalType":"uint256"}],"anonymous":false}],"bytecode":{"object":"0x608060405234801561001057600080fd5b5060405161106738038061106783398101604081905261002f91610207565b6001600160a01b03831661008a5760405162461bcd60e51b815260206004820152601660248201527f50726f7072696574616972653120696e76616c6964650000000000000000000060448201526064015b60405180910390fd5b6001600160a01b0382166100e05760405162461bcd60e51b815260206004820152601660248201527f50726f7072696574616972653220696e76616c696465000000000000000000006044820152606401610081565b6000811180156100f1575060028111155b61014f5760405162461bcd60e51b815260206004820152602960248201527f4e6f6d62726520646520636f6e6669726d6174696f6e7320726571756973657360448201526820696e76616c69646560b81b6064820152608401610081565b6001600160a01b039283166000818152602081905260408082208054600160ff199182168117909255815480830183557fb10e2d527612073b26eecdfd717e6a320cf44b4afac2b0732d9fcbe2b7fa0cf690810180546001600160a01b03199081169097179055969097168084529183208054909716811790965585548087018755959091529390920180549092169092179055600255610243565b80516001600160a01b038116811461020257600080fd5b919050565b60008060006060848603121561021c57600080fd5b610225846101eb565b9250610233602085016101eb565b9150604084015190509250925092565b610e15806102526000396000f3fe6080604052600436106100865760003560e01c8063c01a8c8411610059578063c01a8c841461015a578063c64274741461017a578063d0e30db01461019a578063dc8452cd146101a2578063ee22610b146101c657600080fd5b8063025e7c271461008b57806320ea8d86146100c85780632f54bf6e146100ea5780639ace38c21461012a575b600080fd5b34801561009757600080fd5b506100ab6100a636600461099f565b6101e6565b6040516001600160a01b0390911681526020015b60405180910390f35b3480156100d457600080fd5b506100e86100e336600461099f565b610210565b005b3480156100f657600080fd5b5061011a6101053660046109d4565b60006020819052908152604090205460ff1681565b60405190151581526020016100bf565b34801561013657600080fd5b5061014a61014536600461099f565b610381565b6040516100bf94939291906109f6565b34801561016657600080fd5b506100e861017536600461099f565b610453565b34801561018657600080fd5b506100e8610195366004610a7b565b6105e4565b6100e86106b5565b3480156101ae57600080fd5b506101b860025481565b6040519081526020016100bf565b3480156101d257600080fd5b506100e86101e136600461099f565b6106ec565b600181815481106101f657600080fd5b6000918252602090912001546001600160a01b0316905081565b3360009081526020819052604090205460ff166102485760405162461bcd60e51b815260040161023f90610b46565b60405180910390fd5b6003548190811061026b5760405162461bcd60e51b815260040161023f90610b73565b816003818154811061027f5761027f610baa565b600091825260209091206003600590920201015460ff16156102b35760405162461bcd60e51b815260040161023f90610bc0565b6000600384815481106102c8576102c8610baa565b600091825260208083203384526004600590930201918201905260409091205490915060ff1661033a5760405162461bcd60e51b815260206004820152601960248201527f5472616e73616374696f6e206e6f6e20636f6e6669726d656500000000000000604482015260640161023f565b336000818152600483016020526040808220805460ff19169055518692917ff6a317157440607f36269043eb55f1287a5a19ba2216afeab88cd46cbcfb88e991a350505050565b6003818154811061039157600080fd5b60009182526020909120600590910201805460018201546002830180546001600160a01b0390931694509092916103c790610bf7565b80601f01602080910402602001604051908101604052809291908181526020018280546103f390610bf7565b80156104405780601f1061041557610100808354040283529160200191610440565b820191906000526020600020905b81548152906001019060200180831161042357829003601f168201915b5050506003909301549192505060ff1684565b3360009081526020819052604090205460ff166104825760405162461bcd60e51b815260040161023f90610b46565b600354819081106104a55760405162461bcd60e51b815260040161023f90610b73565b81600381815481106104b9576104b9610baa565b600091825260209091206003600590920201015460ff16156104ed5760405162461bcd60e51b815260040161023f90610bc0565b826003818154811061050157610501610baa565b600091825260208083203384526004600590930201919091019052604090205460ff16156105715760405162461bcd60e51b815260206004820152601a60248201527f5472616e73616374696f6e2064656a6120636f6e6669726d6565000000000000604482015260640161023f565b60006003858154811061058657610586610baa565b6000918252602080832033808552600593909302016004810190915260408084208054600160ff199091161790555190935087927f4a504a94899432a9846e1aa406dceb1bcfd538bb839071d49d1e5e23f5be30ef91a35050505050565b3360009081526020819052604090205460ff166106135760405162461bcd60e51b815260040161023f90610b46565b600380546001810180835560008381529192908390811061063657610636610baa565b6000918252602090912060059091020180546001600160a01b0319166001600160a01b038716178155600181018590559050600281016106768482610c82565b5060038101805460ff1916905560405182907fc0ba8fe4b176c1714197d43b9cc6bcf797a4a7461c5fe8d0ef6e184ae7601e5190600090a25050505050565b60405134815233907fe1fffcc4923d04b559f4d29a8bfc6cda04eb5b0d3c460751c2402c5c5cc9109c9060200160405180910390a2565b3360009081526020819052604090205460ff1661071b5760405162461bcd60e51b815260040161023f90610b46565b6003548190811061073e5760405162461bcd60e51b815260040161023f90610b73565b816003818154811061075257610752610baa565b600091825260209091206003600590920201015460ff16156107865760405162461bcd60e51b815260040161023f90610bc0565b60006003848154811061079b5761079b610baa565b906000526020600020906005020190506107b484610908565b61080c5760405162461bcd60e51b8152602060048201526024808201527f496d706f737369626c652064276578656375746572206c61207472616e7361636044820152633a34b7b760e11b606482015260840161023f565b60038101805460ff191660019081179091558154908201546040516000926001600160a01b03169190610843906002860190610d42565b60006040518083038185875af1925050503d8060008114610880576040519150601f19603f3d011682016040523d82523d6000602084013e610885565b606091505b50509050806108d65760405162461bcd60e51b815260206004820152601760248201527f4563686563206465206c61207472616e73616374696f6e000000000000000000604482015260640161023f565b60405185907f33e13ecb54c3076d8e8bb8c2881800a4d972b792045ffae98fdf46df365fed7590600090a25050505050565b600080805b600154811015610993576003848154811061092a5761092a610baa565b906000526020600020906005020160040160006001838154811061095057610950610baa565b60009182526020808320909101546001600160a01b0316835282019290925260400190205460ff161561098b57610988600183610db8565b91505b60010161090d565b50600254111592915050565b6000602082840312156109b157600080fd5b5035919050565b80356001600160a01b03811681146109cf57600080fd5b919050565b6000602082840312156109e657600080fd5b6109ef826109b8565b9392505050565b60018060a01b03851681526000602085602084015260806040840152845180608085015260005b81811015610a395786810183015185820160a001528201610a1d565b50600060a0828601015260a0601f19601f83011685010192505050821515606083015295945050505050565b634e487b7160e01b600052604160045260246000fd5b600080600060608486031215610a9057600080fd5b610a99846109b8565b925060208401359150604084013567ffffffffffffffff80821115610abd57600080fd5b818601915086601f830112610ad157600080fd5b813581811115610ae357610ae3610a65565b604051601f8201601f19908116603f01168101908382118183101715610b0b57610b0b610a65565b81604052828152896020848701011115610b2457600080fd5b8260208601602083013760006020848301015280955050505050509250925092565b60208082526013908201527250617320756e2070726f70726965746169726560681b604082015260600190565b6020808252601b908201527f4c61207472616e73616374696f6e206e27657869737465207061730000000000604082015260600190565b634e487b7160e01b600052603260045260246000fd5b60208082526019908201527f5472616e73616374696f6e2064656a6120657865637574656500000000000000604082015260600190565b600181811c90821680610c0b57607f821691505b602082108103610c2b57634e487b7160e01b600052602260045260246000fd5b50919050565b601f821115610c7d576000816000526020600020601f850160051c81016020861015610c5a5750805b601f850160051c820191505b81811015610c7957828155600101610c66565b5050505b505050565b815167ffffffffffffffff811115610c9c57610c9c610a65565b610cb081610caa8454610bf7565b84610c31565b602080601f831160018114610ce55760008415610ccd5750858301515b600019600386901b1c1916600185901b178555610c79565b600085815260208120601f198616915b82811015610d1457888601518255948401946001909101908401610cf5565b5085821015610d325787850151600019600388901b60f8161c191681555b5050505050600190811b01905550565b6000808354610d5081610bf7565b60018281168015610d685760018114610d7d57610dac565b60ff1984168752821515830287019450610dac565b8760005260208060002060005b85811015610da35781548a820152908401908201610d8a565b50505082870194505b50929695505050505050565b80820180821115610dd957634e487b7160e01b600052601160045260246000fd5b9291505056fea26469706673582212205056c0008a879fb4ea45cb722cb1df6127659c74c4a5f5a989aeb1d06d85693a64736f6c63430008170033","linkReferences":{}},"methodIdentifiers":{"confirmTransaction(uint256)":"c01a8c84","deposit()":"d0e30db0","executeTransaction(uint256)":"ee22610b","isOwner(address)":"2f54bf6e","owners(uint256)":"025e7c27","required()":"dc8452cd","revokeConfirmation(uint256)":"20ea8d86","submitTransaction(address,uint256,bytes)":"c6427474","transactions(uint256)":"9ace38c2"},"id":1}