{"abi":[{"type":"constructor","inputs":[{"name":"_user1","type":"address","internalType":"address"},{"name":"_user2","type":"address","internalType":"address"}],"stateMutability":"nonpayable"},{"type":"receive","stateMutability":"payable"},{"type":"function","name":"approvals","inputs":[{"name":"","type":"uint256","internalType":"uint256"},{"name":"","type":"address","internalType":"address"}],"outputs":[{"name":"","type":"bool","internalType":"bool"}],"stateMutability":"view"},{"type":"function","name":"approveTransaction","inputs":[{"name":"_txIndex","type":"uint256","internalType":"uint256"}],"outputs":[],"stateMutability":"nonpayable"},{"type":"function","name":"executeTransaction","inputs":[{"name":"_txIndex","type":"uint256","internalType":"uint256"}],"outputs":[],"stateMutability":"nonpayable"},{"type":"function","name":"submitTransaction","inputs":[{"name":"_to","type":"address","internalType":"address"},{"name":"_value","type":"uint256","internalType":"uint256"}],"outputs":[],"stateMutability":"nonpayable"},{"type":"function","name":"transactions","inputs":[{"name":"","type":"uint256","internalType":"uint256"}],"outputs":[{"name":"to","type":"address","internalType":"address"},{"name":"value","type":"uint256","internalType":"uint256"},{"name":"executed","type":"bool","internalType":"bool"}],"stateMutability":"view"},{"type":"function","name":"user1","inputs":[],"outputs":[{"name":"","type":"address","internalType":"address"}],"stateMutability":"view"},{"type":"function","name":"user2","inputs":[],"outputs":[{"name":"","type":"address","internalType":"address"}],"stateMutability":"view"}],"bytecode":{"object":"0x608060405234801561001057600080fd5b5060405161081238038061081283398101604081905261002f9161007c565b600080546001600160a01b039384166001600160a01b031991821617909155600180549290931691161790556100af565b80516001600160a01b038116811461007757600080fd5b919050565b6000806040838503121561008f57600080fd5b61009883610060565b91506100a660208401610060565b90509250929050565b610754806100be6000396000f3fe6080604052600436106100745760003560e01c8063ab2850da1161004e578063ab2850da1461010e578063ac1717b014610159578063b9edb1af14610191578063ee22610b146101b157600080fd5b80631d43b65314610080578063242232d1146100a25780639ace38c2146100c257600080fd5b3661007b57005b600080fd5b34801561008c57600080fd5b506100a061009b366004610673565b6101d1565b005b3480156100ae57600080fd5b506100a06100bd36600461069d565b610318565b3480156100ce57600080fd5b506100e26100dd36600461069d565b6103e7565b604080516001600160a01b03909416845260208401929092521515908201526060015b60405180910390f35b34801561011a57600080fd5b506101496101293660046106b6565b600360209081526000928352604080842090915290825290205460ff1681565b6040519015158152602001610105565b34801561016557600080fd5b50600054610179906001600160a01b031681565b6040516001600160a01b039091168152602001610105565b34801561019d57600080fd5b50600154610179906001600160a01b031681565b3480156101bd57600080fd5b506100a06101cc36600461069d565b610427565b6000546001600160a01b03163314806101f457506001546001600160a01b031633145b6102195760405162461bcd60e51b8152600401610210906106e2565b60405180910390fd5b60028054604080516060810182526001600160a01b0395861681526020808201958652600082840181815260018087018855968252925160038087027f405787fa12a823e0f2b7631cc41b3ba8828b3321ca811111fa75cd3aa3bb5ace81018054938c166001600160a01b03199094169390931790925597517f405787fa12a823e0f2b7631cc41b3ba8828b3321ca811111fa75cd3aa3bb5acf82015592517f405787fa12a823e0f2b7631cc41b3ba8828b3321ca811111fa75cd3aa3bb5ad0909301805493151560ff199485161790559384529485528183208354871684529094528082208054851690559154909316835290912080549091169055565b6000546001600160a01b031633148061033b57506001546001600160a01b031633145b6103575760405162461bcd60e51b8152600401610210906106e2565b600081815260036020908152604080832033845290915290205460ff16156103c15760405162461bcd60e51b815260206004820152601c60248201527f5472616e73616374696f6e20616c726561647920617070726f766564000000006044820152606401610210565b60009081526003602090815260408083203384529091529020805460ff19166001179055565b600281815481106103f757600080fd5b60009182526020909120600390910201805460018201546002909201546001600160a01b03909116925060ff1683565b6000546001600160a01b031633148061044a57506001546001600160a01b031633145b6104665760405162461bcd60e51b8152600401610210906106e2565b6002818154811061047957610479610708565b600091825260209091206002600390920201015460ff16156104dd5760405162461bcd60e51b815260206004820152601c60248201527f5472616e73616374696f6e20616c7265616479206578656375746564000000006044820152606401610210565b600081815260036020908152604080832083546001600160a01b0316845290915290205460ff168015610534575060008181526003602090815260408083206001546001600160a01b0316845290915290205460ff165b6105905760405162461bcd60e51b815260206004820152602760248201527f5472616e73616374696f6e206e6f7420617070726f76656420627920626f7468604482015266206f776e65727360c81b6064820152608401610210565b6001600282815481106105a5576105a5610708565b906000526020600020906003020160020160006101000a81548160ff021916908315150217905550600281815481106105e0576105e0610708565b6000918252602090912060039091020154600280546001600160a01b03909216916108fc91908490811061061657610616610708565b9060005260206000209060030201600101549081150290604051600060405180830381858888f19350505050158015610653573d6000803e3d6000fd5b5050565b80356001600160a01b038116811461066e57600080fd5b919050565b6000806040838503121561068657600080fd5b61068f83610657565b946020939093013593505050565b6000602082840312156106af57600080fd5b5035919050565b600080604083850312156106c957600080fd5b823591506106d960208401610657565b90509250929050565b6020808252600c908201526b2737ba1030b71037bbb732b960a11b604082015260600190565b634e487b7160e01b600052603260045260246000fdfea264697066735822122013a0b0adda177eae2ae45a4fe96578bc7440c4d53e396bdaad7a33d9bc8a04f564736f6c63430008170033","linkReferences":{}},"methodIdentifiers":{"approvals(uint256,address)":"ab2850da","approveTransaction(uint256)":"242232d1","executeTransaction(uint256)":"ee22610b","submitTransaction(address,uint256)":"1d43b653","transactions(uint256)":"9ace38c2","user1()":"ac1717b0","user2()":"b9edb1af"},"id":23}