{"abi":[{"type":"constructor","inputs":[{"name":"owner1","type":"address","internalType":"address"},{"name":"owner2","type":"address","internalType":"address"},{"name":"_required","type":"uint256","internalType":"uint256"}],"stateMutability":"nonpayable"},{"type":"function","name":"confirmTransaction","inputs":[{"name":"_txIndex","type":"uint256","internalType":"uint256"}],"outputs":[],"stateMutability":"nonpayable"},{"type":"function","name":"deposit","inputs":[],"outputs":[],"stateMutability":"payable"},{"type":"function","name":"executeTransaction","inputs":[{"name":"_txIndex","type":"uint256","internalType":"uint256"}],"outputs":[],"stateMutability":"nonpayable"},{"type":"function","name":"isConfirmed","inputs":[{"name":"_txIndex","type":"uint256","internalType":"uint256"}],"outputs":[{"name":"","type":"bool","internalType":"bool"}],"stateMutability":"view"},{"type":"function","name":"isOwner","inputs":[{"name":"_address","type":"address","internalType":"address"}],"outputs":[{"name":"","type":"bool","internalType":"bool"}],"stateMutability":"view"},{"type":"function","name":"owners","inputs":[{"name":"","type":"uint256","internalType":"uint256"}],"outputs":[{"name":"","type":"address","internalType":"address"}],"stateMutability":"view"},{"type":"function","name":"required","inputs":[],"outputs":[{"name":"","type":"uint256","internalType":"uint256"}],"stateMutability":"view"},{"type":"function","name":"submitTransaction","inputs":[{"name":"_to","type":"address","internalType":"address"},{"name":"_value","type":"uint256","internalType":"uint256"},{"name":"_data","type":"bytes","internalType":"bytes"}],"outputs":[],"stateMutability":"payable"},{"type":"function","name":"transactions","inputs":[{"name":"","type":"uint256","internalType":"uint256"}],"outputs":[{"name":"to","type":"address","internalType":"address"},{"name":"value","type":"uint256","internalType":"uint256"},{"name":"data","type":"bytes","internalType":"bytes"},{"name":"executed","type":"bool","internalType":"bool"}],"stateMutability":"view"}],"bytecode":{"object":"0x608060405234801561001057600080fd5b50604051610e31380380610e3183398101604081905261002f916101b7565b6001600160a01b03831661007b5760405162461bcd60e51b815260206004820152600e60248201526d496e76616c6964206f776e65723160901b60448201526064015b60405180910390fd5b6001600160a01b0382166100c25760405162461bcd60e51b815260206004820152600e60248201526d24b73b30b634b21037bbb732b91960911b6044820152606401610072565b6000811180156100d3575060028111155b6101295760405162461bcd60e51b815260206004820152602160248201527f496e76616c6964207265717569726564206e756d626572206f66206f776e65726044820152607360f81b6064820152608401610072565b60008054600181810183558280527f290decd9548b62a8d60345a988386fc84ba6bc95484008f6362f93160ef3e56391820180546001600160a01b039788166001600160a01b0319918216179091558354808301909455929091018054949095169390911692909217909255556101f3565b80516001600160a01b03811681146101b257600080fd5b919050565b6000806000606084860312156101cc57600080fd5b6101d58461019b565b92506101e36020850161019b565b9150604084015190509250925092565b610c2f806102026000396000f3fe6080604052600436106100865760003560e01c8063c01a8c8411610059578063c01a8c8414610148578063c64274741461016a578063d0e30db014610168578063dc8452cd1461017d578063ee22610b146101a157600080fd5b8063025e7c271461008b5780632f54bf6e146100c8578063784547a7146100f85780639ace38c214610118575b600080fd5b34801561009757600080fd5b506100ab6100a6366004610854565b6101c1565b6040516001600160a01b0390911681526020015b60405180910390f35b3480156100d457600080fd5b506100e86100e3366004610889565b6101eb565b60405190151581526020016100bf565b34801561010457600080fd5b506100e8610113366004610854565b61024a565b34801561012457600080fd5b50610138610133366004610854565b6102e0565b6040516100bf94939291906108ab565b34801561015457600080fd5b50610168610163366004610854565b6103b2565b005b610168610178366004610930565b610590565b34801561018957600080fd5b5061019360015481565b6040519081526020016100bf565b3480156101ad57600080fd5b506101686101bc366004610854565b610649565b600081815481106101d157600080fd5b6000918252602090912001546001600160a01b0316905081565b6000805b60005481101561024157826001600160a01b031660008281548110610216576102166109fb565b6000918252602090912001546001600160a01b0316036102395750600192915050565b6001016101ef565b50600092915050565b600080805b6000548110156102d4576002848154811061026c5761026c6109fb565b90600052602060002090600502016004016000808381548110610291576102916109fb565b60009182526020808320909101546001600160a01b0316835282019290925260400190205460ff16156102cc57816102c881610a11565b9250505b60010161024f565b50600154111592915050565b600281815481106102f057600080fd5b60009182526020909120600590910201805460018201546002830180546001600160a01b03909316945090929161032690610a38565b80601f016020809104026020016040519081016040528092919081815260200182805461035290610a38565b801561039f5780601f106103745761010080835404028352916020019161039f565b820191906000526020600020905b81548152906001019060200180831161038257829003601f168201915b5050506003909301549192505060ff1684565b6103bb336101eb565b6103fb5760405162461bcd60e51b815260206004820152600c60248201526b2737ba1030b71037bbb732b960a11b60448201526064015b60405180910390fd5b6002548190811061044e5760405162461bcd60e51b815260206004820152601a60248201527f5472616e73616374696f6e20646f6573206e6f7420657869737400000000000060448201526064016103f2565b8160028181548110610462576104626109fb565b600091825260209091206003600590920201015460ff16156104c65760405162461bcd60e51b815260206004820152601c60248201527f5472616e73616374696f6e20616c72656164792065786563757465640000000060448201526064016103f2565b82600281815481106104da576104da6109fb565b600091825260208083203384526004600590930201919091019052604090205460ff161561054a5760405162461bcd60e51b815260206004820152601d60248201527f5472616e73616374696f6e20616c726561647920636f6e6669726d656400000060448201526064016103f2565b60006002858154811061055f5761055f6109fb565b60009182526020808320338452600460059093020191909101905260409020805460ff191660011790555050505050565b610599336101eb565b6105d45760405162461bcd60e51b815260206004820152600c60248201526b2737ba1030b71037bbb732b960a11b60448201526064016103f2565b60028054600181018083556000838152919290839081106105f7576105f76109fb565b6000918252602090912060059091020180546001600160a01b0319166001600160a01b038716178155600181018590559050600281016106378482610ac3565b50600301805460ff1916905550505050565b6002548190811061069c5760405162461bcd60e51b815260206004820152601a60248201527f5472616e73616374696f6e20646f6573206e6f7420657869737400000000000060448201526064016103f2565b81600281815481106106b0576106b06109fb565b600091825260209091206003600590920201015460ff16156107145760405162461bcd60e51b815260206004820152601c60248201527f5472616e73616374696f6e20616c72656164792065786563757465640000000060448201526064016103f2565b600060028481548110610729576107296109fb565b906000526020600020906005020190506107428461024a565b61078e5760405162461bcd60e51b815260206004820152601a60248201527f43616e6e6f742065786563757465207472616e73616374696f6e00000000000060448201526064016103f2565b60038101805460ff191660019081179091558154908201546040516000926001600160a01b031691906107c5906002860190610b83565b60006040518083038185875af1925050503d8060008114610802576040519150601f19603f3d011682016040523d82523d6000602084013e610807565b606091505b505090508061084d5760405162461bcd60e51b8152602060048201526012602482015271151c985b9cd858dd1a5bdb8819985a5b195960721b60448201526064016103f2565b5050505050565b60006020828403121561086657600080fd5b5035919050565b80356001600160a01b038116811461088457600080fd5b919050565b60006020828403121561089b57600080fd5b6108a48261086d565b9392505050565b60018060a01b03851681526000602085602084015260806040840152845180608085015260005b818110156108ee5786810183015185820160a0015282016108d2565b50600060a0828601015260a0601f19601f83011685010192505050821515606083015295945050505050565b634e487b7160e01b600052604160045260246000fd5b60008060006060848603121561094557600080fd5b61094e8461086d565b925060208401359150604084013567ffffffffffffffff8082111561097257600080fd5b818601915086601f83011261098657600080fd5b8135818111156109985761099861091a565b604051601f8201601f19908116603f011681019083821181831017156109c0576109c061091a565b816040528281528960208487010111156109d957600080fd5b8260208601602083013760006020848301015280955050505050509250925092565b634e487b7160e01b600052603260045260246000fd5b600060018201610a3157634e487b7160e01b600052601160045260246000fd5b5060010190565b600181811c90821680610a4c57607f821691505b602082108103610a6c57634e487b7160e01b600052602260045260246000fd5b50919050565b601f821115610abe576000816000526020600020601f850160051c81016020861015610a9b5750805b601f850160051c820191505b81811015610aba57828155600101610aa7565b5050505b505050565b815167ffffffffffffffff811115610add57610add61091a565b610af181610aeb8454610a38565b84610a72565b602080601f831160018114610b265760008415610b0e5750858301515b600019600386901b1c1916600185901b178555610aba565b600085815260208120601f198616915b82811015610b5557888601518255948401946001909101908401610b36565b5085821015610b735787850151600019600388901b60f8161c191681555b5050505050600190811b01905550565b6000808354610b9181610a38565b60018281168015610ba95760018114610bbe57610bed565b60ff1984168752821515830287019450610bed565b8760005260208060002060005b85811015610be45781548a820152908401908201610bcb565b50505082870194505b5092969550505050505056fea26469706673582212208a1b92fdab1cb6fc1ebb514e32e78fb3b726648f67d7b14fd609fab0f326a77f64736f6c63430008170033","linkReferences":{}},"methodIdentifiers":{"confirmTransaction(uint256)":"c01a8c84","deposit()":"d0e30db0","executeTransaction(uint256)":"ee22610b","isConfirmed(uint256)":"784547a7","isOwner(address)":"2f54bf6e","owners(uint256)":"025e7c27","required()":"dc8452cd","submitTransaction(address,uint256,bytes)":"c6427474","transactions(uint256)":"9ace38c2"},"id":23}